:100000000C942A000C943F000C943F000C943F0089
:100010000C943F000C943F000C943F000C943F0064
:100020000C943F000C943F000C943F000C943F0054
:100030000C943F000C943F000C943F000C943F0044
:100040000C943F000C943F000C943F000C943F0034
:100050000C943F0011241FBECFE5D8E0DEBFCDBF1A
:1000600010E0A0E6B0E0E4E9F9E402C005900D92EA
:10007000A23CB107D9F70E94FF0B0C94C8240C9442
:100080000000EF92FF920F931F937B018C0120E001
:1000900030E040E05FE40E94410388238CF0C80117
:1000A000B70120E030E040E05FE40E94B9010E9427
:1000B000A1039B01AC01205030404040504806C095
:1000C000C801B7010E94A1039B01AC01B901CA019B
:1000D0001F910F91FF90EF900895A0E0B0E0E3E74B
:1000E000F0E00C949124DC012B01FA019C919230F8
:1000F00008F439C1EB018881823008F433C19430AF
:1001000069F4843009F02FC111969C91119789816F
:10011000981709F428C1AAEBB0E025C1843009F48E
:1001200021C18230A9F4923009F01DC19A01AD01BC
:1001300088E0EA010990AE01E90109929E0181502F
:10014000C1F7E201898111969C918923818308C1BD
:10015000923009F407C112962D903C901397EB0151
:100160008A819B811496AD90BD90CD90DC901797BD
:10017000EC80FD800E811F819101281B390BB90194
:1001800037FF04C066277727621B730B6032710547
:100190000CF061C0121613066CF537014801062EEB
:1001A00004C096948794779467940A94D2F721E0D8
:1001B00030E040E050E004C0220F331F441F551FC1
:1001C0006A95D2F721503040404050402E213F21C7
:1001D00040235123211531054105510521F021E02E
:1001E00030E040E050E079018A01E628F72808294C
:1001F00019293CC0232BD1F1260E371E35014601AB
:10020000062E04C096948794779467940A94D2F744
:1002100021E030E040E050E004C0220F331F441FD3
:10022000551F6A95D2F721503040404050402A2156
:100230003B214C215D21211531054105510521F05E
:1002400021E030E040E050E059016A01A628B728DB
:10025000C828D9280BC0821593052CF01C01AA24AC
:10026000BB24650103C0EE24FF24870111969C91F5
:10027000D20111968C91981709F445C0992339F051
:10028000A80197012A193B094C095D0906C0A6017E
:1002900095012E193F09400B510B57FD08C01182E3
:1002A0003382228224833583468357831DC081E0B5
:1002B00081833382228288279927DC01821B930B5A
:1002C000A40BB50B84839583A683B7830DC0220F3F
:1002D000331F441F551F24833583468357838281F0
:1002E000938101979383828324813581468157814D
:1002F000DA01C9010197A109B1098F5F9F4FAF4F83
:10030000BF4328F30BC0918333822282EA0CFB1C8B
:100310000C1D1D1DE482F5820683178383E0808314
:10032000248135814681578157FF1AC0C901AA2708
:1003300097FDA095BA2F81709070A070B0705695FF
:10034000479537952795822B932BA42BB52B848328
:100350009583A683B7838281938101969383828359
:10036000DF0101C0D201CD01CDB7DEB7E2E10C94CF
:10037000AD24A0E2B0E0EFEBF1E00C949D246983A2
:100380007A838B839C832D833E834F835887E9E058
:10039000EE2EF12CEC0EFD1ECE010196B7010E944F
:1003A000CA048E010F5E1F4FCE010596B8010E9450
:1003B000CA048A8991E089278A8BC701B801AE01F6
:1003C000475E5F4F0E946D000E94F503A096E6E035
:1003D0000C94B924A0E2B0E0E0EFF1E00C949D248D
:1003E00069837A838B839C832D833E834F835887D5
:1003F000F9E0EF2EF12CEC0EFD1ECE010196B701B7
:100400000E94CA048E010F5E1F4FCE010596B801EF
:100410000E94CA04C701B801AE01475E5F4F0E9447
:100420006D000E94F503A096E6E00C94B924A0E2CA
:10043000B0E0EDE1F2E00C94912469837A838B8340
:100440009C832D833E834F835887CE010196BE0146
:10045000675F7F4F0E94CA04CE010596BE016F5EA2
:100460007F4F0E94CA049985923088F08989823032
:10047000C8F0943019F4823051F404C0843029F467
:10048000923081F48AEB90E0C6C0923049F420E0CB
:100490009A858A89981321E02A87CE010996BBC0E4
:1004A000823049F420E09A858A89981321E02A8BCA
:1004B000CE014196B0C02D843E844F8458886D880B
:1004C0007E888F88988CEE24FF248701AA24BB2481
:1004D000650140E050E060E070E0E0E0F0E0C10184
:1004E00081709070892BE9F0E60CF71C081D191D2E
:1004F0009A01AB012A0D3B1D4C1D5D1D80E090E073
:10050000A0E0B0E0E614F7040805190520F481E046
:1005100090E0A0E0B0E0BA01A901480F591F6A1F9E
:100520007B1FAA0CBB1CCC1CDD1C97FE08C081E005
:1005300090E0A0E0B0E0A82AB92ACA2ADB2A3196C6
:10054000E032F10549F0660C771C881C991C569422
:10055000479437942794C3CFFA85EA892B893C893D
:100560008B859C85280F391F2E5F3F4F17C0CA010E
:1005700081709070892B61F016950795F794E79438
:1005800080E090E0A0E0B0E8E82AF92A0A2B1B2BD3
:1005900076956795579547952F5F3F4F77FDE7CF46
:1005A0000CC0440F551F661F771F17FD4160EE0CEE
:1005B000FF1C001F111F21503040403090E05907B0
:1005C00090E0690790E4790760F32B8F3C8FDB01A3
:1005D000CA018F779070A070B07080349105A1052A
:1005E000B10561F447FD0AC0E114F10401051105EC
:1005F00029F0405C5F4F6F4F7F4F40781A8EFE1797
:1006000011F081E08A8F4D8F5E8F6F8F78A383E02A
:10061000898FCE0149960E94F503A096E2E10C94E1
:10062000AD24A8E1B0E0E7E1F3E00C949D246983F8
:100630007A838B839C832D833E834F83588789E005
:10064000E82EF12CEC0EFD1ECE010196B7010E94A2
:10065000CA048E010F5E1F4FCE010596B8010E949D
:10066000CA048985823040F08989823028F0C70128
:10067000B8010E94420501C08FEF6896E6E00C9435
:10068000B924A8E1B0E0E7E4F3E00C949D24698389
:100690007A838B839C832D833E834F83588789E0A5
:1006A000E82EF12CEC0EFD1ECE010196B7010E9442
:1006B000CA048E010F5E1F4FCE010596B8010E943D
:1006C000CA048985823040F08989823028F0C701C8
:1006D000B8010E94420501C08FEF6896E6E00C94D5
:1006E000B924A8E1B0E0E7E7F3E00C949D24698326
:1006F0007A838B839C832D833E834F83588789E045
:10070000E82EF12CEC0EFD1ECE010196B7010E94E1
:10071000CA048E010F5E1F4FCE010596B8010E94DC
:10072000CA048985823040F08989823028F0C70167
:10073000B8010E94420501C081E06896E6E00C9491
:10074000B924ACE0B0E0E7EAF3E00C94A1246983BB
:100750007A838B839C83CE010196BE016B5F7F4FB2
:100760000E94CA048D81823061F1823050F1843060
:1007700021F48E81882351F12EC02F81388537FDD9
:1007800020C06E812F3131051CF06623F9F023C0A3
:100790008EE190E0821B930B29853A854B855C8521
:1007A00004C056954795379527958A95D2F76623C5
:1007B000B1F050954095309521953F4F4F4F5F4F89
:1007C0000EC020E030E040E050E009C02FEF3FEFE6
:1007D0004FEF5FE704C020E030E040E050E8B901AF
:1007E000CA012C96E2E00C94BD24DF92EF92FF92B6
:1007F0000F931F93FC01E480F58006811781D1805F
:100800008081823048F480E090E0A0E1B0E0E82A06
:10081000F92A0A2B1B2BA5C0843009F49FC0823013
:1008200021F4EE24FF24870105C0E114F104010541
:10083000110519F4E0E0F0E096C0628173819FEF4A
:10084000623879070CF05BC022E83FEF261B370BBC
:100850002A3131052CF020E030E040E050E02AC0A1
:10086000B801A701022E04C0769567955795479564
:100870000A94D2F781E090E0A0E0B0E004C0880FD5
:10088000991FAA1FBB1F2A95D2F70197A109B10989
:100890008E219F21A023B1230097A105B10521F04E
:1008A00081E090E0A0E0B0E09A01AB01282B392B69
:1008B0004A2B5B2BDA01C9018F779070A070B07062
:1008C00080349105A105B10539F427FF09C0205CEA
:1008D0003F4F4F4F5F4F04C0215C3F4F4F4F5F4F23
:1008E000E0E0F0E02030A0E03A07A0E04A07A0E412
:1008F0005A0710F0E1E0F0E079018A0127C0603882
:10090000710564F5FB01E158FF4FD801C7018F77EE
:100910009070A070B07080349105A105B10539F4D4
:10092000E7FE0DC080E490E0A0E0B0E004C08FE3FB
:1009300090E0A0E0B0E0E80EF91E0A1F1B1F17FFB1
:1009400005C016950795F794E794319687E01695BC
:100950000795F794E7948A95D1F705C0EE24FF2414
:100960008701EFEFF0E06E2F679566276795902F70
:100970009F77D794DD24D7948E2F8695492F462BC9
:10098000582F5D29B701CA011F910F91FF90EF9079
:10099000DF900895FC01DB01408151812281622FAB
:1009A0006F7770E0221F2227221F9381892F880FE3
:1009B000822B282F30E0991F9927991F11969C931D
:1009C000119721153105A9F54115510561057105ED
:1009D00011F482E037C082E89FEF13969C938E93C8
:1009E00012979A01AB0167E0220F331F441F551F76
:1009F0006A95D1F783E08C930DC0220F331F441FFB
:100A0000551F12968D919C911397019713969C9365
:100A10008E931297203080E0380780E0480780E40A
:100A2000580758F314962D933D934D935C93179765
:100A300008952F3F310579F4411551056105710580
:100A400019F484E08C93089564FF03C081E08C93D3
:100A500012C01C9210C02F57304013963C932E9317
:100A6000129783E08C9387E0440F551F661F771F12
:100A70008A95D1F7706414964D935D936D937C9332
:100A8000179708951F93DC01FB019C91923008F4A5
:100A900047C08081823008F443C0943051F41196ED
:100AA0001C91843099F58181682F70E0611B710978
:100AB0003FC0843021F0923031F48230B9F181812D
:100AC000882389F12DC011961C9111978230F1F085
:100AD00081811817D9F412962D913C911397828138
:100AE00093818217930794F028173907BCF0149666
:100AF0008D919D910D90BC91A02D248135814681D1
:100B00005781281739074A075B0718F4112341F06A
:100B10000AC082179307A407B50740F4112319F000
:100B200061E070E005C06FEF7FEF02C060E070E051
:100B3000CB011F910895DF93CF93CDB7DEB76097B8
:100B40000FB6F894DEBF0FBECDBF888B1F8681E045
:100B500060E040E00E94EC0981E061E040E00E943A
:100B6000EC0980E068890E94FE0A81E062E041E0D1
:100B70000E94EC0980E090E0A0E0B0E48B879C87C5
:100B8000AD87BE876B857C858D859E8520E030E0B6
:100B90004AEF54E40E941702DC01CB018F8398874F
:100BA000A987BA876F81788589859A8520E030E0AA
:100BB00040E85FE30E94710388232CF481E090E019
:100BC0009E838D833FC06F81788589859A8520E0DB
:100BD0003FEF4FE757E40E94110318164CF56B8561
:100BE0007C858D859E8520E030E040E251E40E94C6
:100BF0001702DC01CB01BC01CD010E944100DC01E8
:100C0000CB019E838D830FC088EC90E09C838B8307
:100C10008B819C810197F1F79C838B838D819E81D1
:100C200001979E838D838D819E81009769F714C003
:100C30006F81788589859A850E944100DC01CB010E
:100C40009E838D838D819E819A83898389819A81F8
:100C50000197F1F79A83898381E062E040E00E9486
:100C6000EC098F8560960FB6F894DEBF0FBECDBF3E
:100C7000CF91DF910895DF93CF93CDB7DEB7609723
:100C80000FB6F894DEBF0FBECDBF888B1F8681E004
:100C900060E041E00E94EC0981E061E040E00E94F8
:100CA000EC0980E068890E94FE0A81E062E041E090
:100CB0000E94EC0980E090E0A0E0B0E48B879C8784
:100CC000AD87BE876B857C858D859E8520E030E075
:100CD0004AEF54E40E941702DC01CB018F8398870E
:100CE000A987BA876F81788589859A8520E030E069
:100CF00040E85FE30E94710388232CF481E090E0D8
:100D00009E838D833FC06F81788589859A8520E099
:100D10003FEF4FE757E40E94110318164CF56B851F
:100D20007C858D859E8520E030E040E251E40E9484
:100D30001702DC01CB01BC01CD010E944100DC01A6
:100D4000CB019E838D830FC088EC90E09C838B83C6
:100D50008B819C810197F1F79C838B838D819E8190
:100D600001979E838D838D819E81009769F714C0C2
:100D70006F81788589859A850E944100DC01CB01CD
:100D80009E838D838D819E819A83898389819A81B7
:100D90000197F1F79A83898381E062E040E00E9445
:100DA000EC098F8560960FB6F894DEBF0FBECDBFFD
:100DB000CF91DF910895DF93CF9300D000D0CDB7CE
:100DC000DEB79C838B831A8219820EC08A81282FFA
:100DD00030E08B819C81FC01E20FF31F80810E9437
:100DE0003B068A818F5F8A838A81282F30E08B813E
:100DF0009C81FC01E20FF31F8081882339F78981F0
:100E00000F900F900F900F90CF91DF910895DF9387
:100E1000CF9300D000D0CDB7DEB78B836C831A821E
:100E20008B81882319F48C81898309C08B8181305F
:100E300021F48C81805C898302C081E08A8389816E
:100E400080580E949B058A810F900F900F900F9001
:100E5000CF91DF910895DF93CF93CDB7DEB7289779
:100E60000FB6F894DEBF0FBECDBF9D838C836E831B
:100E70004F8328871B821A828E81882F90E0880FEB
:100E8000991F880F991F880F991F8A838A81805C18
:100E90000E949B0519820EC08981282F30E08C8129
:100EA0009D81FC01E20FF31F80810E943B06898136
:100EB0008F5F89838981883078F38F8168850E946C
:100EC00007078E810E943B068B8128960FB6F89407
:100ED000DEBF0FBECDBFCF91DF910895DF93CF93DB
:100EE00000D000D000D0CDB7DEB79B838A836C835F
:100EF0004D832E83198211C09D818981981B8C811D
:100F0000692F0E940707CE0102960E94DB0688E146
:100F10000E949B0589818F5F898399818E818917C2
:100F200058F726960FB6F894DEBF0FBECDBFCF910F
:100F3000DF910895DF93CF9300D000D000D0CDB7DC
:100F4000DEB79B838A836C834D832E83198211C005
:100F50009D818981980F8C81692F0E940707CE019E
:100F600002960E94DB068CE10E949B0589818F5FBF
:100F7000898399818E81891758F726960FB6F89440
:100F8000DEBF0FBECDBFCF91DF9108950F931F93AA
:100F9000DF93CF93CDB7DEB766970FB6F894DEBF79
:100FA0000FBECDBF6B8B7C8B8D8B9E8B1B822DC020
:100FB0008B81082F10E08B899C89AD89BE892AE03E
:100FC00030E040E050E0BC01CD010E946F24DC0124
:100FD000CB01282FCE010496FC01E00FF11F2083E6
:100FE0008B899C89AD89BE892AE030E040E050E0E1
:100FF000BC01CD010E946F24DA01C9018B8B9C8B4F
:10100000AD8BBE8B8B818F5F8B838B899C89AD89E8
:10101000BE890097A105B10559F68B818983898125
:101020008A8312C08A81882F90E09C012150304031
:10103000CE010496FC01E20FF31F8081805D0E94C7
:101040003B068A8181508A838A81882359F7669674
:101050000FB6F894DEBF0FBECDBFCF91DF911F91C9
:101060000F910895EF920F93DF93CF93CDB7DEB733
:10107000A4970FB6F894DEBF0FBECDBF9F8F8E8FA3
:1010800068A349A32AA30BA3ECA28E8D9F8D68A110
:1010900049A12AA10E942B078CA1882309F080C0B6
:1010A0001D8E78C088E10E949B0580E090E0A8E456
:1010B000B2E4898F9A8FAB8FBC8F698D7A8D8B8DBF
:1010C0009C8D20E030E04AEF54E40E941702DC01DE
:1010D000CB018D8B9E8BAF8BB88F6D897E898F896D
:1010E000988D20E030E040E85FE30E9471038823A0
:1010F0002CF481E090E09C8B8B8B3FC06D897E89C6
:101100008F89988D20E03FEF4FE757E40E9411034D
:1011100018164CF5698D7A8D8B8D9C8D20E030E012
:1011200040E251E40E941702DC01CB01BC01CD0179
:101130000E944100DC01CB019C8B8B8B0FC088ECA3
:1011400090E09A8B898B89899A890197F1F79A8B1C
:10115000898B8B899C8901979C8B8B8B8B899C8934
:10116000009769F714C06D897E898F89988D0E94D8
:101170004100DC01CB019C8B8B8B8B899C89988BEC
:101180008F878F8598890197F1F7988B8F878D8D41
:101190008F5F8D8F9D8D8BA1891708F083CF83C0C2
:1011A0008CA1813009F07FC01D8E78C08CE10E9437
:1011B0009B0580E090E0A8E4B2E48B879C87AD8734
:1011C000BE876B857C858D859E8520E030E04AEF6B
:1011D00054E40E941702DC01CB018F839887A98712
:1011E000BA876F81788589859A8520E030E040E86C
:1011F0005FE30E94710388232CF481E090E09E83DA
:101200008D833FC06F81788589859A8520E03FEF87
:101210004FE757E40E94110318164CF56B857C8547
:101220008D859E8520E030E040E251E40E94170267
:10123000DC01CB01BC01CD010E944100DC01CB01EE
:101240009E838D830FC088EC90E09C838B838B8181
:101250009C810197F1F79C838B838D819E810197FF
:101260009E838D838D819E81009769F714C06F8165
:10127000788589859A850E944100DC01CB019E8397
:101280008D838D819E819A83898389819A8101973B
:10129000F1F79A8389838D8D8F5F8D8F9D8D8BA1C3
:1012A000891708F083CFA4960FB6F894DEBF0FBE5F
:1012B000CDBFCF91DF910F91EF900895DF93CF9342
:1012C000CDB7DEB72E970FB6F894DEBF0FBECDBFF9
:1012D00080E090E0A0E2B2E48B879C87AD87BE8778
:1012E0006B857C858D859E8520E030E04AEF54E457
:1012F0000E941702DC01CB018F839887A987BA87E8
:101300006F81788589859A8520E030E040E85FE349
:101310000E94710388232CF481E090E09E838D83EA
:101320003FC06F81788589859A8520E03FEF4FE740
:1013300057E40E94110318164CF56B857C858D854A
:101340009E8520E030E040E251E40E941702DC017B
:10135000CB01BC01CD010E944100DC01CB019E8389
:101360008D830FC088EC90E09C838B838B819C8164
:101370000197F1F79C838B838D819E8101979E83DA
:101380008D838D819E81009769F714C06F81788568
:1013900089859A850E944100DC01CB019E838D8363
:1013A0008D819E819A83898389819A810197F1F742
:1013B0009A8389838CE30E949B058CE00E949B05A5
:1013C00081E00E949B052E960FB6F894DEBF0FBEFB
:1013D000CDBFCF91DF910895DF93CF93CDB7DEB727
:1013E00028970FB6F894DEBF0FBECDBF8A836B83FC
:1013F0004C8319828B81883008F0F4C08C8188235B
:1014000009F077C08A81282F30E038872F838F81B9
:1014100098858130910559F12F8138852230310529
:101420002CF48F819885009769F060C02F813885F2
:101430002230310589F18F8198858330910509F437
:1014400040C054C0ABE3B0E0EBE3F0E08081482F54
:101450008B81282F30E081E090E0022E02C0880FBF
:10146000991F0A94E2F7809584238C93BDC0A8E36A
:10147000B0E0E8E3F0E08081482F8B81282F30E056
:1014800081E090E0022E02C0880F991F0A94E2F7D3
:10149000809584238C93A8C0A5E3B0E0E5E3F0E059
:1014A0008081482F8B81282F30E081E090E0022E50
:1014B00002C0880F991F0A94E2F7809584238C93C9
:1014C00093C0A2E3B0E0E2E3F0E08081482F8B819B
:1014D000282F30E081E090E0022E02C0880F991F93
:1014E0000A94E2F7809584238C937EC081E08983FF
:1014F0007BC08C81813009F072C08A81282F30E056
:101500003E832D838D819E818130910549F12D810E
:101510003E81223031052CF48D819E81009761F04F
:101520005BC02D813E812230310571F18D819E811C
:1015300083309105E9F150C0ABE3B0E0EBE3F0E0BC
:101540008081482F8B81282F30E081E090E0022EAF
:1015500002C0880F991F0A94E2F7842B8C9344C031
:10156000A8E3B0E0E8E3F0E08081482F8B81282FEA
:1015700030E081E090E0022E02C0880F991F0A94AB
:10158000E2F7842B8C9330C0A5E3B0E0E5E3F0E014
:101590008081482F8B81282F30E081E090E0022E5F
:1015A00002C0880F991F0A94E2F7842B8C931CC009
:1015B000A2E3B0E0E2E3F0E08081482F8B81282FA6
:1015C00030E081E090E0022E02C0880F991F0A945B
:1015D000E2F7842B8C9308C081E0898305C081E009
:1015E000898302C081E08983898128960FB6F894A7
:1015F000DEBF0FBECDBFCF91DF910895DF93CF93B4
:1016000000D000D00F92CDB7DEB78A836B831982EA
:101610008A81282F30E03D832C838C819D8181300D
:101620009105D1F02C813D81223031052CF48C8143
:101630009D81009761F01FC02C813D8122303105D2
:1016400081F08C819D818330910581F014C0EBE3A2
:10165000F0E08B81808311C0E8E3F0E08B81808330
:101660000CC0E5E3F0E08B81808307C0E2E3F0E0AB
:101670008B81808302C081E0898389810F900F90E4
:101680000F900F900F90CF91DF910895DF93CF933C
:10169000CDB7DEB727970FB6F894DEBF0FBECDBF2C
:1016A0008A836B835D834C8319828C819D81009733
:1016B00009F478C08B81883008F074C08A81282FA3
:1016C00030E03F832E834E815F814130510559F1D7
:1016D0008E819F818230910534F42E813F812115C6
:1016E000310569F05CC04E815F814230510579F16E
:1016F0008E819F818330910509F43DC050C0E9E39C
:10170000F0E08081282F30E08B81882F90E0A901C4
:1017100002C0559547958A95E2F7CA018170EC8120
:10172000FD81808341C0E6E3F0E08081282F30E036
:101730008B81882F90E0A90102C0559547958A9525
:10174000E2F7CA018170EC81FD8180832DC0E3E363
:10175000F0E08081282F30E08B81882F90E0A90174
:1017600002C0559547958A95E2F7CA018170EC81D0
:10177000FD81808319C0E0E3F0E08081282F30E014
:101780008B81882F90E0A90102C0559547958A95D5
:10179000E2F7CA018170EC81FD81808305C081E0A0
:1017A000898302C081E08983898127960FB6F894E6
:1017B000DEBF0FBECDBFCF91DF910895DF93CF93F2
:1017C000CDB7DEB7EAE3F0E08FEF8083E7E3F0E048
:1017D00087E08083E4E3F0E01082E1E3F0E0108250
:1017E000EBE3F0E01082E8E3F0E01082E5E3F0E004
:1017F0001082E2E3F0E01082CF91DF9108950F9321
:101800001F93DF93CF93CDB7DEB7C056D2400FB64C
:10181000F894DEBF0FBECDBF0E94DE0B0E945E09B2
:10182000CE0181589E4FC75CDD4F99838883C95391
:10183000D24080E690E0C55CDD4F99838883CB532E
:10184000D24096E0C35CDD4F9883CD53D240C55C57
:10185000DD4FA881B981CB53D2400C90C55CDD4FE0
:10186000E881F981CB53D2403196C55CDD4FF983D5
:10187000E883CB53D240C75CDD4FA881B981C953FF
:10188000D2400C92C75CDD4FE881F981C953D24048
:101890003196C75CDD4FF983E883C953D240C35CFE
:1018A000DD4FF881CD53D240F150C35CDD4FF8835A
:1018B000CD53D240C35CDD4F8881CD53D2408823C5
:1018C00031F6FE01EB57FE4F809166009091670064
:1018D000A0916800B091690080839183A283B38353
:1018E000CE0187579E4FC25CDD4F99838883CE53CC
:1018F000D240AAE6B0E0C05CDD4FB983A883C054F3
:10190000D240B6E0CE5BDD4FB883C254D240C05C5B
:10191000DD4FE881F981C054D2400080C05CDD4FCA
:1019200088819981C054D2400196C05CDD4F998373
:101930008883C054D240C25CDD4FA881B981CE53A8
:10194000D2400C92C25CDD4FE881F981CE53D24087
:101950003196C25CDD4FF983E883CE53D240CE5B33
:10196000DD4FF881C254D240F150CE5BDD4FF88399
:10197000C254D240CE5BDD4F8881C254D24088230E
:1019800031F6CE0181579E4FCD5BDD4F9983888321
:10199000C354D240A0E7B0E0CB5BDD4FB983A8834E
:1019A000C554D240BCE0C95BDD4FB883C754D240B8
:1019B000CB5BDD4FE881F981C554D2400080CB5B21
:1019C000DD4F88819981C554D2400196CB5BDD4FB4
:1019D00099838883C554D240CD5BDD4FA881B981FE
:1019E000C354D2400C92CD5BDD4FE881F981C354E2
:1019F000D2403196CD5BDD4FF983E883C354D240AA
:101A0000C95BDD4FF881C754D240F150C95BDD4F4F
:101A1000F883C754D240C95BDD4F8881C754D24098
:101A2000882331F6CE0185569E4FC85BDD4F9983E2
:101A30008883C854D240ACE7B0E0C65BDD4FB983C1
:101A4000A883CA54D240B9E0C45BDD4FB883CC54FC
:101A5000D240C65BDD4FE881F981CA54D240008094
:101A6000C65BDD4F88819981CA54D2400196C65B1E
:101A7000DD4F99838883CA54D240C85BDD4FA8816B
:101A8000B981C854D2400C92C85BDD4FE881F9811E
:101A9000C854D2403196C85BDD4FF983E883C854FF
:101AA000D240C45BDD4FF881CC54D240F150C45BCE
:101AB000DD4FF883CC54D240C45BDD4F8881CC54D9
:101AC000D240882331F6CE018C559E4FC35BDD4F4B
:101AD00099838883CD54D240A5E8B0E0C15BDD4F47
:101AE000B983A883CF54D240BDE0CF5ADD4FB8832D
:101AF000C155D240C15BDD4FE881F981CF54D2405E
:101B00000080C15BDD4F88819981CF54D24001961E
:101B1000C15BDD4F99838883CF54D240C35BDD4FD7
:101B2000A881B981CD54D2400C92C35BDD4FE881CE
:101B3000F981CD54D2403196C35BDD4FF983E88300
:101B4000CD54D240CF5ADD4FF881C155D240F1502B
:101B5000CF5ADD4FF883C155D240CF5ADD4F88812F
:101B6000C155D240882331F6CE018F549E4FCE5AB4
:101B7000DD4F99838883C255D240A2E9B0E0CC5AA8
:101B8000DD4FB983A883C455D240B0E1CA5ADD4FB6
:101B9000B883C655D240CC5ADD4FE881F981C4558F
:101BA000D2400080CC5ADD4F88819981C455D24003
:101BB0000196CC5ADD4F99838883C455D240CE5AC2
:101BC000DD4FA881B981C255D2400C92CE5ADD4F6B
:101BD000E881F981C255D2403196CE5ADD4FF98362
:101BE000E883C255D240CA5ADD4FF881C655D2406B
:101BF000F150CA5ADD4FF883C655D240CA5ADD4F5C
:101C00008881C655D240882331F6CE018F539E4F2E
:101C1000C95ADD4F99838883C755D240A2EAB0E004
:101C2000C75ADD4FB983A883C955D240BEE0C55A13
:101C3000DD4FB883CB55D240C75ADD4FE881F981DB
:101C4000C955D2400080C75ADD4F88819981C95556
:101C5000D2400196C75ADD4F99838883C955D24037
:101C6000C95ADD4FA881B981C755D2400C92C95AD3
:101C7000DD4FE881F981C755D2403196C95ADD4F11
:101C8000F983E883C755D240C55ADD4FF881CB555B
:101C9000D240F150C55ADD4FF883CB55D240C55ADA
:101CA000DD4F8881CB55D240882331F6CE01815358
:101CB0009E4FC45ADD4F99838883CC55D240A0EB08
:101CC000B0E0C25ADD4FB983A883CE55D240BAE006
:101CD000C05ADD4FB883C056D240C25ADD4FE881AA
:101CE000F981CE55D2400080C25ADD4F888199815A
:101CF000CE55D2400196C25ADD4F99838883CE5586
:101D0000D240C45ADD4FA881B981CC55D2400C9243
:101D1000C45ADD4FE881F981CC55D2403196C45A7E
:101D2000DD4FF983E883CC55D240C05ADD4FF881AE
:101D3000C056D240F150C05ADD4FF883C056D24051
:101D4000C05ADD4F8881C056D240882331F6CE017B
:101D500087529E4F28E0FC01DF01822F1D928A9559
:101D6000E9F7FE01E752FE4F8EE08083FE01E75265
:101D7000FE4F8EE08183FE01E752FE4F84E08283B6
:101D8000FE01E752FE4F8FE18383FE01E752FE4FD3
:101D900084E08483FE01E752FE4F8FE18583FE01DC
:101DA000E752FE4F81E18683CE018F519E4F28E09E
:101DB000FC01DF01822F1D928A95E9F7FE01EF51A8
:101DC000FE4F8EE08083FE01EF51FE4F8EE0818357
:101DD000FE01EF51FE4F85E08283FE01EF51FE4F81
:101DE0008FE18383FE01EF51FE4F84E08483FE0187
:101DF000EF51FE4F8FE18583FE01EF51FE4F80E1F1
:101E00008683CE0187519E4F28E0FC01DF01822F9F
:101E10001D928A95E9F7FE01E751FE4F88E1848320
:101E2000FE01E751FE4F88E18583CE018F509E4F22
:101E300028E0FC01DF01822F1D928A95E9F7FE015F
:101E4000EF50FE4F88E18283FE01EF50FE4F88E1A4
:101E50008383CE0187509E4F28E0FC01DF01822F53
:101E60001D928A95E9F7FE01E750FE4F8EE08083D0
:101E7000FE01E750FE4F8EE08183FE01E750FE4FEA
:101E800085E18283FE01E750FE4F8EE08383FE01F1
:101E9000E750FE4F86E08483FE01E750FE4F8FE05F
:101EA0008583FE01E750FE4F89E08683CE018F5F78
:101EB0009D4F28E0FC01DF01822F1D928A95E9F7F2
:101EC000FE01EF5FFD4F8EE08083FE01EF5FFD4F6F
:101ED0008EE08183FE01EF5FFD4F85E18283FE018D
:101EE000EF5FFD4F8EE08383FE01EF5FFD4F8CE0DF
:101EF0008483FE01EF5FFD4F8EE18583FE01EF5F7E
:101F0000FD4F82E18683CE01875F9D4F28E0FC0173
:101F1000DF01822F1D928A95E9F7FE01E75FFD4FF1
:101F20008EE08083FE01E75FFD4F8EE08183FE013E
:101F3000E75FFD4F85E08283FE01E75FFD4F8FE1A4
:101F40008383FE01E75FFD4F84E08483FE01E75F4A
:101F5000FD4F8FE18583FE01E75FFD4F81E08683C2
:101F6000CE018F5E9D4F28E0FC01DF01822F1D9284
:101F70008A95E9F7FE01EF5EFD4F8EE08283FE0158
:101F8000EF5EFD4F8EE08383FE01EF5EFD4F8EE03E
:101F90008483FE01EF5EFD4F8FE18583FE01EF5EDE
:101FA000FD4F8FE18683CE01875E9D4F28E0FC01C7
:101FB000DF01822F1D928A95E9F7FE01E75EFD4F52
:101FC0008FE18083FE01E75EFD4F8FE18183FE019B
:101FD000E75EFD4F8AE18283FE01E75EFD4F8AE105
:101FE0008383FE01E75EFD4F88E18483FE01E75EA7
:101FF000FD4F88E18583FE01E75EFD4F88E1868322
:10200000CE018F5D9D4F28E0FC01DF01822F1D92E4
:102010008A95E9F7FE01EF5DFD4F83E08283FE01C3
:10202000EF5DFD4F8FE18383FE01EF5DFD4F83E0A8
:102030008483CE01875D9D4F28E0FC01DF01822F64
:102040001D928A95E9F7FE01E75DFD4F8FE18083E0
:10205000FE01E75DFD4F8FE08183FE01E75DFD4FEF
:1020600086E08283FE01E75DFD4F8FE18383FE0101
:10207000E75DFD4F84E08483FE01E75DFD4F8FE166
:102080008583FE01E75DFD4F81E18683CE018F5C94
:102090009D4F28E0FC01DF01822F1D928A95E9F710
:1020A000FE01EF5CFD4F84E08083FE01EF5CFD4F9D
:1020B00086E18183FE01EF5CFD4F8FE08283FE01AC
:1020C000EF5CFD4F8EE18383FE01EF5CFD4F81E10C
:1020D0008483FE01EF5CFD4F88E08583FE01EF5CA9
:1020E000FD4F88E08683CE0187529E4F60E040E03E
:1020F00023E00E942B07FE01E958FE4F80E090E0AC
:10210000A0E2B1E480839183A283B3838E010D5852
:102110001E4FFE01E958FE4F6081718182819381DB
:1021200020E030E04AEF54E40E941702DC01CB01CA
:10213000F80180839183A283B383FE01ED58FE4FA3
:10214000608171818281938120E030E040E85FE32B
:102150000E947103882344F4FE01EF58FE4F81E092
:1021600090E09183808364C0FE01ED58FE4F608152
:1021700071818281938120E03FEF4FE757E40E9415
:10218000110318160CF043C0FE01E958FE4F6081A0
:1021900071818281938120E030E040E251E40E942D
:1021A0001702DC01CB018E010F581E4FBC01CD017F
:1021B0000E944100DC01CB01F801918380831FC0A4
:1021C000FE01E159FE4F88EC90E091838083FE018F
:1021D000E159FE4F808191810197F1F7FE01E159AC
:1021E000FE4F91838083DE01AF58BE4FFE01EF5852
:1021F000FE4F80819181019711969C938E93FE01F1
:10220000EF58FE4F808191810097D1F627C08E0153
:102210000F581E4FFE01ED58FE4F60817181828183
:1022200093810E944100DC01CB01F80191838083FE
:10223000DE01A359BE4FFE01EF58FE4F8081918110
:102240008D939C93FE01E359FE4F8081918101970C
:10225000F1F7FE01E359FE4F9183808380E067E050
:102260000E940707CE0181589E4F0E94DB0681E045
:1022700065E00E940707CE018B579E4F0E94DB0648
:1022800081E069E00E940707CE0187579E4F0E94B8
:10229000DB06FE01E759FE4F80E090E0A8E4B3E4DE
:1022A00080839183A283B3838E010B591E4FFE015D
:1022B000E759FE4F608171818281938120E030E097
:1022C0004AEF54E40E941702DC01CB01F80180833D
:1022D0009183A283B383FE01EB59FE4F608171812C
:1022E0008281938120E030E040E85FE30E94710347
:1022F000882344F4FE01ED59FE4F81E090E0918384
:10230000808364C0FE01EB59FE4F60817181828140
:10231000938120E03FEF4FE757E40E941103181626
:102320000CF043C0FE01E759FE4F6081718182814C
:10233000938120E030E040E251E40E941702DC018A
:10234000CB018E010D591E4FBC01CD010E944100F1
:10235000DC01CB01F801918380831FC0FE01EF599E
:10236000FE4F88EC90E091838083FE01EF59FE4F91
:10237000808191810197F1F7FE01EF59FE4F918322
:102380008083DE01AD59BE4FFE01ED59FE4F8081C5
:102390009181019711969C938E93FE01ED59FE4F0A
:1023A000808191810097D1F627C08E010D591E4F73
:1023B000FE01EB59FE4F60817181828193810E9401
:1023C0004100DC01CB01F80191838083DE01A15A39
:1023D000BE4FFE01ED59FE4F808191818D939C93FC
:1023E000FE01E15AFE4F808191810197F1F7FE01D4
:1023F000E15AFE4F9183808381E00E949B05CE01CC
:1024000081579E4F0E94DB0681E060E00E94070733
:10241000CE0185569E4F0E94DB06FE01E358FE4F1B
:1024200010828FC1CE0187519E4F60E041E02BE0CA
:102430000E942B07CE018F519E4F61E041E02AE0C0
:102440000E942B07FE01E55AFE4F80E090E0A0E2DB
:10245000B1E480839183A283B3838E01095A1E4F16
:10246000FE01E55AFE4F608171818281938120E0F7
:1024700030E04AEF54E40E941702DC01CB01F8017E
:1024800080839183A283B383FE01E95AFE4F60816A
:1024900071818281938120E030E040E85FE30E9417
:1024A0007103882344F4FE01EB5AFE4F81E090E073
:1024B0009183808364C0FE01E95AFE4F608171817F
:1024C0008281938120E03FEF4FE757E40E941103A0
:1024D00018160CF043C0FE01E55AFE4F6081718171
:1024E0008281938120E030E040E251E40E941702B3
:1024F000DC01CB018E010B5A1E4FBC01CD010E94A5
:102500004100DC01CB01F801918380831FC0FE01F3
:10251000ED5AFE4F88EC90E091838083FE01ED5AE6
:10252000FE4F808191810197F1F7FE01ED5AFE4F38
:1025300091838083DE01AB5ABE4FFE01EB5AFE4F02
:1025400080819181019711969C938E93FE01EB5AA5
:10255000FE4F808191810097D1F627C08E010B5AE2
:102560001E4FFE01E95AFE4F608171818281938185
:102570000E944100DC01CB01F80191838083DE01E0
:10258000AF5ABE4FFE01EB5AFE4F808191818D9371
:102590009C93FE01EF5AFE4F808191810197F1F7E4
:1025A000FE01EF5AFE4F91838083CE018F509E4FE4
:1025B00063E041E02BE00E942B07CE0187529E4F43
:1025C00062E041E02AE00E942B07FE01E35BFE4F40
:1025D00080E090E0A0E2B1E480839183A283B383A2
:1025E0008E01075B1E4FFE01E35BFE4F6081718130
:1025F0008281938120E030E04AEF54E40E94170288
:10260000DC01CB01F80180839183A283B383FE01B7
:10261000E75BFE4F608171818281938120E030E031
:1026200040E85FE30E947103882344F4FE01E95B04
:10263000FE4F81E090E09183808364C0FE01E75B00
:10264000FE4F608171818281938120E03FEF4FE7EF
:1026500057E40E94110318160CF043C0FE01E35B1F
:10266000FE4F608171818281938120E030E040E201
:1026700051E40E941702DC01CB018E01095B1E4F61
:10268000BC01CD010E944100DC01CB01F801918326
:1026900080831FC0FE01EB5BFE4F88EC90E09183CE
:1026A0008083FE01EB5BFE4F808191810197F1F702
:1026B000FE01EB5BFE4F91838083DE01A95BBE4F81
:1026C000FE01E95BFE4F80819181019711969C93F9
:1026D0008E93FE01E95BFE4F808191810097D1F6D8
:1026E00027C08E01095B1E4FFE01E75BFE4F608134
:1026F0007181828193810E944100DC01CB01F8014C
:1027000091838083DE01AD5BBE4FFE01E95BFE4F2E
:10271000808191818D939C93FE01ED5BFE4F8081C2
:1027200091810197F1F7FE01ED5BFE4F918380836C
:10273000DE01A358BE4FFE01E358FE4F80818F5F3C
:102740008C93FE01E358FE4F8081863008F46ACEF8
:1027500081E00E949B05CE018C559E4F0E94DB06B6
:10276000FE01E458FE4F10827FC1CE0187509E4F7C
:1027700060E041E027E00E942B07FE01E15CFE4F94
:1027800080E090E0A0E2B1E480839183A283B383F0
:102790008E01055C1E4FFE01E15CFE4F6081718180
:1027A0008281938120E030E04AEF54E40E941702D6
:1027B000DC01CB01F80180839183A283B383FE0106
:1027C000E55CFE4F608171818281938120E030E081
:1027D00040E85FE30E947103882344F4FE01E75C54
:1027E000FE4F81E090E09183808364C0FE01E55C50
:1027F000FE4F608171818281938120E03FEF4FE73E
:1028000057E40E94110318160CF043C0FE01E15C6E
:10281000FE4F608171818281938120E030E040E24F
:1028200051E40E941702DC01CB018E01075C1E4FB0
:10283000BC01CD010E944100DC01CB01F801918374
:1028400080831FC0FE01E95CFE4F88EC90E091831D
:102850008083FE01E95CFE4F808191810197F1F751
:10286000FE01E95CFE4F91838083DE01A75CBE4FD1
:10287000FE01E75CFE4F80819181019711969C9348
:102880008E93FE01E75CFE4F808191810097D1F627
:1028900027C08E01075C1E4FFE01E55CFE4F608184
:1028A0007181828193810E944100DC01CB01F8019A
:1028B00091838083DE01AB5CBE4FFE01E75CFE4F7F
:1028C000808191818D939C93FE01EB5CFE4F808112
:1028D00091810197F1F7FE01EB5CFE4F91838083BC
:1028E000CE018F5F9D4F60E041E027E00E942B0703
:1028F000FE01EF5CFE4F80E090E0A0E2B1E4808357
:102900009183A283B3838E01035D1E4FFE01EF5CB2
:10291000FE4F608171818281938120E030E04AEF37
:1029200054E40E941702DC01CB01F80180839183FB
:10293000A283B383FE01E35DFE4F608171818281DA
:10294000938120E030E040E85FE30E947103882338
:1029500044F4FE01E55DFE4F81E090E091838083C9
:1029600064C0FE01E35DFE4F6081718182819381CD
:1029700020E03FEF4FE757E40E94110318160CF0D8
:1029800043C0FE01EF5CFE4F6081718182819381C3
:1029900020E030E040E251E40E941702DC01CB016C
:1029A0008E01055D1E4FBC01CD010E944100DC017E
:1029B000CB01F801918380831FC0FE01E75DFE4FCC
:1029C00088EC90E091838083FE01E75DFE4F80817B
:1029D00091810197F1F7FE01E75DFE4F91838083BE
:1029E000DE01A55DBE4FFE01E55DFE4F8081918158
:1029F000019711969C938E93FE01E55DFE4F8081B9
:102A000091810097D1F627C08E01055D1E4FFE0112
:102A1000E35DFE4F60817181828193810E9441005C
:102A2000DC01CB01F80191838083DE01A95DBE4FFB
:102A3000FE01E55DFE4F808191818D939C93FE01A7
:102A4000E95DFE4F808191810197F1F7FE01E95D1B
:102A5000FE4F91838083DE01A458BE4FFE01E458EF
:102A6000FE4F80818F5F8C93FE01E458FE4F808182
:102A7000883008F47ACE81E00E949B05CE018F5405
:102A80009E4F0E94DB06FE01ED5DFE4F80E090E070
:102A9000A6E1B3E480839183A283B3838E01015EB8
:102AA0001E4FFE01ED5DFE4F608171818281938139
:102AB00020E030E04AEF54E40E941702DC01CB0131
:102AC000F80180839183A283B383FE01E15EFE4F10
:102AD000608171818281938120E030E040E85FE392
:102AE0000E947103882344F4FE01E35EFE4F81E0FF
:102AF00090E09183808364C0FE01E15EFE4F6081BF
:102B000071818281938120E03FEF4FE757E40E947B
:102B1000110318160CF043C0FE01ED5DFE4F6081FD
:102B200071818281938120E030E040E251E40E9493
:102B30001702DC01CB018E01035E1E4FBC01CD01EB
:102B40000E944100DC01CB01F801918380831FC00A
:102B5000FE01E55EFE4F88EC90E091838083FE01EC
:102B6000E55EFE4F808191810197F1F7FE01E55E00
:102B7000FE4F91838083DE01A35EBE4FFE01E35EC4
:102B8000FE4F80819181019711969C938E93FE0157
:102B9000E35EFE4F808191810097D1F627C08E01C0
:102BA000035E1E4FFE01E15EFE4F608171818281F6
:102BB00093810E944100DC01CB01F8019183808365
:102BC000DE01A75EBE4FFE01E35EFE4F8081918174
:102BD0008D939C93FE01E75EFE4F8081918101976A
:102BE000F1F7FE01E75EFE4F9183808381E00E9452
:102BF0009B05FE01E558FE4F10820C943A22CE014F
:102C0000875F9D4F60E041E020E00E942B07CE01EE
:102C10008F5E9D4F61E041E02EE00E942B07FE0198
:102C2000EB5EFE4F80E090E0A0E2B1E48083918310
:102C3000A283B3838E010F5E1E4FFE01EB5EFE4F3B
:102C4000608171818281938120E030E04AEF54E419
:102C50000E941702DC01CB01F80180839183A283DB
:102C6000B383FE01EF5EFE4F6081718182819381AB
:102C700020E030E040E85FE30E947103882344F4E1
:102C8000FE01E15FFE4F81E090E09183808364C0AC
:102C9000FE01EF5EFE4F608171818281938120E0B1
:102CA0003FEF4FE757E40E94110318160CF043C0A2
:102CB000FE01EB5EFE4F608171818281938120E095
:102CC00030E040E251E40E941702DC01CB018E01AA
:102CD000015F1E4FBC01CD010E944100DC01CB0110
:102CE000F801918380831FC0FE01E35FFE4F88ECF3
:102CF00090E091838083FE01E35FFE4F80819181AC
:102D00000197F1F7FE01E35FFE4F91838083DE01BF
:102D1000A15FBE4FFE01E15FFE4F8081918101976F
:102D200011969C938E93FE01E15FFE4F808191810D
:102D30000097D1F627C08E01015F1E4FFE01EF5EA6
:102D4000FE4F60817181828193810E944100DC018C
:102D5000CB01F80191838083DE01A55FBE4FFE01A8
:102D6000E15FFE4F808191818D939C93FE01E55F31
:102D7000FE4F808191810197F1F7FE01E55FFE4FE3
:102D80009183808381E00E949B05CE018F519E4FED
:102D900060E041E021E00E942B07CE018F5E9D4F55
:102DA00061E041E02EE00E942B07FE01E95FFE4F4B
:102DB00080E090E0A0E2B1E480839183A283B383BA
:102DC0008E010D5F1E4FFE01E95FFE4F6081718134
:102DD0008281938120E030E04AEF54E40E941702A0
:102DE000DC01CB01F80180839183A283B383FE01D0
:102DF000ED5FFE4F608171818281938120E030E040
:102E000040E85FE30E947103882344F4FE01EF5F12
:102E1000FE4F81E090E09183808364C0FE01ED5F0E
:102E2000FE4F608171818281938120E03FEF4FE707
:102E300057E40E94110318160CF043C0FE01E95F2D
:102E4000FE4F608171818281938120E030E040E219
:102E500051E40E941702DC01CB018E010F5F1E4F6F
:102E6000BC01CD010E944100DC01CB01F80191833E
:102E700080831FC0FE01E150FF4F88EC90E09183FA
:102E80008083FE01E150FF4F808191810197F1F72E
:102E9000FE01E150FF4F91838083DE01AF5FBE4FA3
:102EA000FE01EF5FFE4F80819181019711969C9307
:102EB0008E93FE01EF5FFE4F808191810097D1F6E6
:102EC00027C08E010F5F1E4FFE01ED5FFE4F608138
:102ED0007181828193810E944100DC01CB01F80164
:102EE00091838083DE01A350BF4FFE01EF5FFE4F51
:102EF000808191818D939C93FE01E350FF4F8081EF
:102F000091810197F1F7FE01E350FF4F9183808398
:102F100081E00E949B05CE01875F9D4F60E041E00C
:102F200022E00E942B07CE018F5E9D4F61E041E0C1
:102F30002DE00E942B07FE01E750FF4F80E090E05C
:102F4000A0E2B1E480839183A283B3838E010B500E
:102F50001F4FFE01E750FF4F608171818281938195
:102F600020E030E04AEF54E40E941702DC01CB017C
:102F7000F80180839183A283B383FE01EB50FF4F5E
:102F8000608171818281938120E030E040E85FE3DD
:102F90000E947103882344F4FE01ED50FF4F81E04D
:102FA00090E09183808364C0FE01EB50FF4F60810D
:102FB00071818281938120E03FEF4FE757E40E94C7
:102FC000110318160CF043C0FE01E750FF4F60815B
:102FD00071818281938120E030E040E251E40E94DF
:102FE0001702DC01CB018E010D501F4FBC01CD013A
:102FF0000E944100DC01CB01F801918380831FC056
:10300000FE01EF50FF4F88EC90E091838083FE013A
:10301000EF50FF4F808191810197F1F7FE01EF5052
:10302000FF4F91838083DE01AD50BF4FFE01ED5015
:10303000FF4F80819181019711969C938E93FE01A1
:10304000ED50FF4F808191810097D1F627C08E010E
:103050000D501F4FFE01EB50FF4F60817181828147
:1030600093810E944100DC01CB01F80191838083B0
:10307000DE01A151BF4FFE01ED50FF4F80819181D4
:103080008D939C93FE01E151FF4F808191810197C7
:10309000F1F7FE01E151FF4F9183808381E00E94AF
:1030A0009B05CE018F519E4F60E041E023E00E94DE
:1030B0002B07CE018F5E9D4F61E041E02CE00E9426
:1030C0002B07FE01E551FF4F80E090E0A0E2B1E464
:1030D00080839183A283B3838E0109511F4FFE0128
:1030E000E551FF4F608171818281938120E030E062
:1030F0004AEF54E40E941702DC01CB01F8018083FF
:103100009183A283B383FE01E951FF4F60817181F6
:103110008281938120E030E040E85FE30E94710308
:10312000882344F4FE01EB51FF4F81E090E091834E
:10313000808364C0FE01E951FF4F6081718182810B
:10314000938120E03FEF4FE757E40E9411031816E8
:103150000CF043C0FE01E551FF4F60817181828117
:10316000938120E030E040E251E40E941702DC014C
:10317000CB018E010B511F4FBC01CD010E944100BC
:10318000DC01CB01F801918380831FC0FE01ED516A
:10319000FF4F88EC90E091838083FE01ED51FF4F5B
:1031A000808191810197F1F7FE01ED51FF4F9183ED
:1031B0008083DE01AB51BF4FFE01EB51FF4F808199
:1031C0009181019711969C938E93FE01EB51FF4FD5
:1031D000808191810097D1F627C08E010B511F4F3E
:1031E000FE01E951FF4F60817181828193810E94CC
:1031F0004100DC01CB01F80191838083DE01AF51F6
:10320000BF4FFE01EB51FF4F808191818D939C93C5
:10321000FE01EF51FF4F808191810197F1F7FE018F
:10322000EF51FF4F9183808381E00E949B05CE0187
:10323000875F9D4F60E041E024E00E942B07CE01B4
:103240008F5E9D4F61E041E02BE00E942B07FE0165
:10325000E352FF4F80E090E0A0E2B1E480839183ED
:10326000A283B3838E0107521F4FFE01E352FF4F2B
:10327000608171818281938120E030E04AEF54E4E3
:103280000E941702DC01CB01F80180839183A283A5
:10329000B383FE01E752FF4F608171818281938188
:1032A00020E030E040E85FE30E947103882344F4AB
:1032B000FE01E952FF4F81E090E09183808364C07A
:1032C000FE01E752FF4F608171818281938120E08E
:1032D0003FEF4FE757E40E94110318160CF043C06C
:1032E000FE01E352FF4F608171818281938120E072
:1032F00030E040E251E40E941702DC01CB018E0174
:1033000009521F4FBC01CD010E944100DC01CB01DD
:10331000F801918380831FC0FE01EB52FF4F88ECC0
:1033200090E091838083FE01EB52FF4F8081918179
:103330000197F1F7FE01EB52FF4F91838083DE018D
:10334000A952BF4FFE01E952FF4F80819181019741
:1033500011969C938E93FE01E952FF4F80819181DB
:103360000097D1F627C08E0109521F4FFE01E75288
:10337000FF4F60817181828193810E944100DC0155
:10338000CB01F80191838083DE01AD52BF4FFE0176
:10339000E952FF4F808191818D939C93FE01ED5204
:1033A000FF4F808191810197F1F7FE01ED52FF4FB0
:1033B0009183808381E00E949B05CE018F519E4FB7
:1033C00060E041E025E00E942B07CE018F5E9D4F1B
:1033D00061E041E02AE00E942B07FE01E153FF4F2C
:1033E00080E090E0A0E2B1E480839183A283B38384
:1033F0008E0105531F4FFE01E153FF4F6081718124
:103400008281938120E030E04AEF54E40E94170269
:10341000DC01CB01F80180839183A283B383FE0199
:10342000E553FF4F608171818281938120E030E01C
:1034300040E85FE30E947103882344F4FE01E753F0
:10344000FF4F81E090E09183808364C0FE01E553EB
:10345000FF4F608171818281938120E03FEF4FE7D0
:1034600057E40E94110318160CF043C0FE01E1530B
:10347000FF4F608171818281938120E030E040E2E2
:1034800051E40E941702DC01CB018E0107531F4F4C
:10349000BC01CD010E944100DC01CB01F801918308
:1034A00080831FC0FE01E953FF4F88EC90E09183B9
:1034B0008083FE01E953FF4F808191810197F1F7ED
:1034C000FE01E953FF4F91838083DE01A753BF4F75
:1034D000FE01E753FF4F80819181019711969C93E4
:1034E0008E93FE01E753FF4F808191810097D1F6C3
:1034F00027C08E0107531F4FFE01E553FF4F608128
:103500007181828193810E944100DC01CB01F8012D
:1035100091838083DE01AB53BF4FFE01E753FF4F22
:10352000808191818D939C93FE01EB53FF4F8081AD
:1035300091810197F1F7FE01EB53FF4F9183808357
:1035400081E00E949B05CE01875F9D4F60E041E0D6
:1035500026E00E942B07CE018F5E9D4F61E041E087
:1035600029E00E942B07FE01EF53FF4F80E090E01F
:10357000A0E2B1E480839183A283B3838E010354DC
:103580001F4FFE01EF53FF4F608171818281938154
:1035900020E030E04AEF54E40E941702DC01CB0146
:1035A000F80180839183A283B383FE01E354FF4F2C
:1035B000608171818281938120E030E040E85FE3A7
:1035C0000E947103882344F4FE01E554FF4F81E01B
:1035D00090E09183808364C0FE01E354FF4F6081DB
:1035E00071818281938120E03FEF4FE757E40E9491
:1035F000110318160CF043C0FE01EF53FF4F60811A
:1036000071818281938120E030E040E251E40E94A8
:103610001702DC01CB018E0105541F4FBC01CD0107
:103620000E944100DC01CB01F801918380831FC01F
:10363000FE01E754FF4F88EC90E091838083FE0108
:10364000E754FF4F808191810197F1F7FE01E75424
:10365000FF4F91838083DE01A554BF4FFE01E554E7
:10366000FF4F80819181019711969C938E93FE016B
:10367000E554FF4F808191810097D1F627C08E01DC
:1036800005541F4FFE01E354FF4F60817181828119
:1036900093810E944100DC01CB01F801918380837A
:1036A000DE01A954BF4FFE01E554FF4F8081918197
:1036B0008D939C93FE01E954FF4F80819181019786
:1036C000F1F7FE01E954FF4F9183808381E00E946E
:1036D0009B05CE018F519E4F60E041E027E00E94A4
:1036E0002B07CE018F5E9D4F61E041E028E00E94F4
:1036F0002B07FE01ED54FF4F80E090E0A0E2B1E423
:1037000080839183A283B3838E0101551F4FFE01F5
:10371000ED54FF4F608171818281938120E030E020
:103720004AEF54E40E941702DC01CB01F8018083C8
:103730009183A283B383FE01E155FF4F60817181C4
:103740008281938120E030E040E85FE30E947103D2
:10375000882344F4FE01E355FF4F81E090E091831C
:10376000808364C0FE01E155FF4F608171818281D9
:10377000938120E03FEF4FE757E40E9411031816B2
:103780000CF043C0FE01ED54FF4F608171818281D6
:10379000938120E030E040E251E40E941702DC0116
:1037A000CB018E0103551F4FBC01CD010E9441008A
:1037B000DC01CB01F801918380831FC0FE01E55538
:1037C000FF4F88EC90E091838083FE01E555FF4F29
:1037D000808191810197F1F7FE01E555FF4F9183BB
:1037E0008083DE01A355BF4FFE01E355FF4F80816B
:1037F0009181019711969C938E93FE01E355FF4FA3
:10380000808191810097D1F627C08E0103551F4F0B
:10381000FE01E155FF4F60817181828193810E9499
:103820004100DC01CB01F80191838083DE01A755C3
:10383000BF4FFE01E355FF4F808191818D939C9393
:10384000FE01E755FF4F808191810197F1F7FE015D
:10385000E755FF4F9183808381E00E949B05CE0155
:10386000875F9D4F60E040E028E00E942B07CE017B
:103870008F5E9D4F61E041E028E00E942B07FE0132
:10388000EB55FF4F80E090E0A0E2B1E480839183AC
:10389000A283B3838E010F551F4FFE01EB55FF4FDF
:1038A000608171818281938120E030E04AEF54E4AD
:1038B0000E941702DC01CB01F80180839183A2836F
:1038C000B383FE01EF55FF4F608171818281938147
:1038D00020E030E040E85FE30E947103882344F475
:1038E000FE01E156FF4F81E090E09183808364C048
:1038F000FE01EF55FF4F608171818281938120E04D
:103900003FEF4FE757E40E94110318160CF043C035
:10391000FE01EB55FF4F608171818281938120E030
:1039200030E040E251E40E941702DC01CB018E013D
:1039300001561F4FBC01CD010E944100DC01CB01AB
:10394000F801918380831FC0FE01E356FF4F88EC8E
:1039500090E091838083FE01E356FF4F8081918147
:103960000197F1F7FE01E356FF4F91838083DE015B
:10397000A156BF4FFE01E156FF4F80819181019713
:1039800011969C938E93FE01E156FF4F80819181A9
:103990000097D1F627C08E0101561F4FFE01EF554B
:1039A000FF4F60817181828193810E944100DC011F
:1039B000CB01F80191838083DE01A556BF4FFE0144
:1039C000E156FF4F808191818D939C93FE01E556D6
:1039D000FF4F808191810197F1F7FE01E556FF4F7E
:1039E0009183808381E00E949B05CE018F519E4F81
:1039F00060E041E029E00E942B07CE018F5E9D4FE1
:103A000061E041E027E00E942B07FE01E956FF4FED
:103A100080E090E0A0E2B1E480839183A283B3834D
:103A20008E010D561F4FFE01E956FF4F60817181D7
:103A30008281938120E030E04AEF54E40E94170233
:103A4000DC01CB01F80180839183A283B383FE0163
:103A5000ED56FF4F608171818281938120E030E0DB
:103A600040E85FE30E947103882344F4FE01EF56AF
:103A7000FF4F81E090E09183808364C0FE01ED56AA
:103A8000FF4F608171818281938120E03FEF4FE79A
:103A900057E40E94110318160CF043C0FE01E956CA
:103AA000FF4F608171818281938120E030E040E2AC
:103AB00051E40E941702DC01CB018E010F561F4F0B
:103AC000BC01CD010E944100DC01CB01F8019183D2
:103AD00080831FC0FE01E157FF4F88EC90E0918387
:103AE0008083FE01E157FF4F808191810197F1F7BB
:103AF000FE01E157FF4F91838083DE01AF56BF4F38
:103B0000FE01EF56FF4F80819181019711969C93A2
:103B10008E93FE01EF56FF4F808191810097D1F681
:103B200027C08E010F561F4FFE01ED56FF4F6081DB
:103B30007181828193810E944100DC01CB01F801F7
:103B400091838083DE01A357BF4FFE01EF56FF4FE5
:103B5000808191818D939C93FE01E357FF4F80817B
:103B600091810197F1F7FE01E357FF4F9183808325
:103B700081E00E949B05CE01875F9D4F60E041E0A0
:103B80002AE00E942B07CE018F5E9D4F61E041E04D
:103B900026E00E942B07FE01E757FF4F80E090E0F0
:103BA000A0E2B1E480839183A283B3838E010B579B
:103BB0001F4FFE01E757FF4F608171818281938122
:103BC00020E030E04AEF54E40E941702DC01CB0110
:103BD000F80180839183A283B383FE01EB57FF4FEB
:103BE000608171818281938120E030E040E85FE371
:103BF0000E947103882344F4FE01ED57FF4F81E0DA
:103C000090E09183808364C0FE01EB57FF4F608199
:103C100071818281938120E03FEF4FE757E40E945A
:103C2000110318160CF043C0FE01E757FF4F6081E7
:103C300071818281938120E030E040E251E40E9472
:103C40001702DC01CB018E010D571F4FBC01CD01C6
:103C50000E944100DC01CB01F801918380831FC0E9
:103C6000FE01EF57FF4F88EC90E091838083FE01C7
:103C7000EF57FF4F808191810197F1F7FE01EF57D8
:103C8000FF4F91838083DE01AD57BF4FFE01ED579B
:103C9000FF4F80819181019711969C938E93FE0135
:103CA000ED57FF4F808191810097D1F627C08E019B
:103CB0000D571F4FFE01EB57FF4F608171818281CD
:103CC00093810E944100DC01CB01F8019183808344
:103CD000DE01A158BF4FFE01ED57FF4F808191815A
:103CE0008D939C93FE01E158FF4F80819181019754
:103CF000F1F7FE01E158FF4F9183808381E00E943C
:103D00009B05CE018F519E4F60E041E02BE00E9469
:103D10002B07CE018F5E9D4F61E041E025E00E94C0
:103D20002B07FE01E558FF4F80E090E0A0E2B1E4F0
:103D300080839183A283B3838E0109581F4FFE01B4
:103D4000E558FF4F608171818281938120E030E0EE
:103D50004AEF54E40E941702DC01CB01F801808392
:103D60009183A283B383FE01E958FF4F6081718183
:103D70008281938120E030E040E85FE30E9471039C
:103D8000882344F4FE01EB58FF4F81E090E09183DB
:103D9000808364C0FE01E958FF4F60817181828198
:103DA000938120E03FEF4FE757E40E94110318167C
:103DB0000CF043C0FE01E558FF4F608171818281A4
:103DC000938120E030E040E251E40E941702DC01E0
:103DD000CB018E010B581F4FBC01CD010E94410049
:103DE000DC01CB01F801918380831FC0FE01ED58F7
:103DF000FF4F88EC90E091838083FE01ED58FF4FE8
:103E0000808191810197F1F7FE01ED58FF4F918379
:103E10008083DE01AB58BF4FFE01EB58FF4F80811E
:103E20009181019711969C938E93FE01EB58FF4F61
:103E3000808191810097D1F627C08E010B581F4FCA
:103E4000FE01E958FF4F60817181828193810E9458
:103E50004100DC01CB01F80191838083DE01AF5882
:103E6000BF4FFE01EB58FF4F808191818D939C9352
:103E7000FE01EF58FF4F808191810197F1F7FE011C
:103E8000EF58FF4F9183808381E00E949B05CE0114
:103E9000875F9D4F60E041E02CE00E942B07CE0140
:103EA0008F5E9D4F61E041E024E00E942B07FE0100
:103EB000E359FF4F80E090E0A0E2B1E4808391837A
:103EC000A283B3838E0107591F4FFE01E359FF4FB1
:103ED000608171818281938120E030E04AEF54E477
:103EE0000E941702DC01CB01F80180839183A28339
:103EF000B383FE01E759FF4F608171818281938115
:103F000020E030E040E85FE30E947103882344F43E
:103F1000FE01E959FF4F81E090E09183808364C006
:103F2000FE01E759FF4F608171818281938120E01A
:103F30003FEF4FE757E40E94110318160CF043C0FF
:103F4000FE01E359FF4F608171818281938120E0FE
:103F500030E040E251E40E941702DC01CB018E0107
:103F600009591F4FBC01CD010E944100DC01CB016A
:103F7000F801918380831FC0FE01EB59FF4F88EC4D
:103F800090E091838083FE01EB59FF4F8081918106
:103F90000197F1F7FE01EB59FF4F91838083DE011A
:103FA000A959BF4FFE01E959FF4F808191810197C7
:103FB00011969C938E93FE01E959FF4F8081918168
:103FC0000097D1F627C08E0109591F4FFE01E7590E
:103FD000FF4F60817181828193810E944100DC01E9
:103FE000CB01F80191838083DE01AD59BF4FFE0103
:103FF000E959FF4F808191818D939C93FE01ED598A
:10400000FF4F808191810197F1F7FE01ED59FF4F3C
:104010009183808381E00E949B05CE018F519E4F4A
:1040200060E041E02DE00E942B07CE018F5E9D4FA6
:1040300061E041E023E00E942B07FE01E15AFF4FBF
:1040400080E090E0A0E2B1E480839183A283B38317
:104050008E01055A1F4FFE01E15AFF4F60817181A9
:104060008281938120E030E04AEF54E40E941702FD
:10407000DC01CB01F80180839183A283B383FE012D
:10408000E55AFF4F608171818281938120E030E0A9
:1040900040E85FE30E947103882344F4FE01E75A7D
:1040A000FF4F81E090E09183808364C0FE01E55A78
:1040B000FF4F608171818281938120E03FEF4FE764
:1040C00057E40E94110318160CF043C0FE01E15A98
:1040D000FF4F608171818281938120E030E040E276
:1040E00051E40E941702DC01CB018E01075A1F4FD9
:1040F000BC01CD010E944100DC01CB01F80191839C
:1041000080831FC0FE01E95AFF4F88EC90E0918345
:104110008083FE01E95AFF4F808191810197F1F779
:10412000FE01E95AFF4F91838083DE01A75ABF4FFA
:10413000FE01E75AFF4F80819181019711969C9370
:104140008E93FE01E75AFF4F808191810097D1F64F
:1041500027C08E01075A1F4FFE01E55AFF4F6081AD
:104160007181828193810E944100DC01CB01F801C1
:1041700091838083DE01AB5ABF4FFE01E75AFF4FA8
:10418000808191818D939C93FE01EB5AFF4F80813A
:1041900091810197F1F7FE01EB5AFF4F91838083E4
:1041A00081E00E949B05CE01875F9D4F60E041E06A
:1041B0002EE00E942B07CE018F5E9D4F61E041E013
:1041C00022E00E942B07FE01EF5AFF4F80E090E0B3
:1041D000A0E2B1E480839183A283B3838E01035B69
:1041E0001F4FFE01EF5AFF4F6081718182819381E1
:1041F00020E030E04AEF54E40E941702DC01CB01DA
:10420000F80180839183A283B383FE01E35BFF4FB8
:10421000608171818281938120E030E040E85FE33A
:104220000E947103882344F4FE01E55BFF4F81E0A7
:1042300090E09183808364C0FE01E35BFF4F608167
:1042400071818281938120E03FEF4FE757E40E9424
:10425000110318160CF043C0FE01EF5AFF4F6081A6
:1042600071818281938120E030E040E251E40E943C
:104270001702DC01CB018E01055B1F4FBC01CD0194
:104280000E944100DC01CB01F801918380831FC0B3
:10429000FE01E75BFF4F88EC90E091838083FE0195
:1042A000E75BFF4F808191810197F1F7FE01E75BAA
:1042B000FF4F91838083DE01A55BBF4FFE01E55B6D
:1042C000FF4F80819181019711969C938E93FE01FF
:1042D000E55BFF4F808191810097D1F627C08E0169
:1042E000055B1F4FFE01E35BFF4F6081718182819F
:1042F00093810E944100DC01CB01F801918380830E
:10430000DE01A95BBF4FFE01E55BFF4F808191811C
:104310008D939C93FE01E95BFF4F80819181019712
:10432000F1F7FE01E95BFF4F9183808381E00E94FA
:104330009B05CE018F519E4F60E041E02FE00E942F
:104340002B07CE018F5E9D4F61E041E021E00E948E
:104350002B07FE01ED5BFF4F80E090E0A0E2B1E4AF
:1043600080839183A283B3838E01015C1F4FFE0182
:10437000ED5BFF4F608171818281938120E030E0AD
:104380004AEF54E40E941702DC01CB01F80180835C
:104390009183A283B383FE01FF9660817181828144
:1043A000938120E030E040E85FE30E9471038823BE
:1043B0002CF481E090E09EAF8DAF46C0FE01FF96E9
:1043C000608171818281938120E03FEF4FE757E464
:1043D0000E941103181664F5FE01ED5BFF4F60812A
:1043E00071818281938120E030E040E251E40E94BB
:1043F0001702DC01CB01BC01CD010E944100DC01B0
:10440000CB019EAF8DAF0FC088EC90E09CAF8BAF1F
:104410008BAD9CAD0197F1F79CAF8BAF8DAD9EAD91
:1044200001979EAF8DAF8DAD9EAD009769F716C019
:10443000FE01FF9660817181828193810E9441001B
:10444000DC01CB019EAF8DAF8DAD9EAD9AAF89AF34
:1044500089AD9AAD0197F1F79AAF89AF81E00E94DB
:104460009B05DE01A558BE4FFE01E558FE4F808139
:104470008F5F8C93FE01E558FE4F8081823010F4EF
:104480000C94FF15CE0187529E4F61E041E02FE072
:104490000E942B0780E062E00E940707CE018F5345
:1044A0009E4F0E94DB06CE01875E9D4F60E041E09B
:1044B00020E00E942B07FE01E258FE4F81E080833E
:1044C00090C0CE018F5D9D4FFE01E258FE4F62E02D
:1044D00041E020810E942B0780E090E0A0E2B1E45F
:1044E0008DAB9EABAFABB8AF6DA97EA98FA998ADD0
:1044F00020E030E04AEF54E40E941702DC01CB01D7
:1045000089AB9AABABABBCAB69A97AA98BA99CA9C7
:1045100020E030E040E85FE30E94710388232CF440
:1045200081E090E098AB8FA73FC069A97AA98BA9D9
:104530009CA920E03FEF4FE757E40E9411031816B3
:104540004CF56DA97EA98FA998AD20E030E040E23E
:1045500051E40E941702DC01CB01BC01CD010E9495
:104560004100DC01CB0198AB8FA70FC088EC90E035
:104570009EA78DA78DA59EA50197F1F79EA78DA754
:104580008FA598A9019798AB8FA78FA598A9009799
:1045900069F714C069A97AA98BA99CA90E94410056
:1045A000DC01CB0198AB8FA78FA598A99CA78BA7FF
:1045B0008BA59CA50197F1F79CA78BA7FE01E2585C
:1045C000FE4F81E060810E94070780E20E943B0667
:1045D000DE01A258BE4FFE01E258FE4F80818F5F80
:1045E0008C93FE01E258FE4F80818F3008F469CF32
:1045F000CE01875D9D4F63E041E02FE00E942B07D5
:1046000080E090E0A8ECB2E48FA398A7A9A7BAA78E
:104610006FA178A589A59AA520E030E04AEF54E47F
:104620000E941702DC01CB018BA39CA3ADA3BEA308
:104630006BA17CA18DA19EA120E030E040E85FE36A
:104640000E94710388232CF481E090E09AA389A34F
:104650003FC06BA17CA18DA19EA120E03FEF4FE761
:1046600057E40E94110318164CF56FA178A589A58F
:104670009AA520E030E040E251E40E941702DC01FC
:10468000CB01BC01CD010E944100DC01CB019AA30A
:1046900089A30FC088EC90E098A38F8F8F8D98A18D
:1046A0000197F1F798A38F8F89A19AA101979AA3F7
:1046B00089A389A19AA1009769F714C06BA17CA175
:1046C0008DA19EA10E944100DC01CB019AA389A388
:1046D00089A19AA19E8F8D8F8D8D9E8D0197F1F767
:1046E0009E8F8D8FCE018F5C9D4F64E041E02FE067
:1046F0000E942B0780E090E0A8ECB2E4898F9A8FAB
:10470000AB8FBC8F698D7A8D8B8D9C8D20E030E0D6
:104710004AEF54E40E941702DC01CB018D8B9E8B83
:10472000AF8BB88F6D897E898F89988D20E030E0BE
:1047300040E85FE30E94710388232CF481E090E05D
:104740009C8B8B8B3FC06D897E898F89988D20E0F3
:104750003FEF4FE757E40E94110318164CF5698D9F
:104760007A8D8B8D9C8D20E030E040E251E40E94F8
:104770001702DC01CB01BC01CD010E944100DC012C
:10478000CB019C8B8B8B0FC088EC90E09A8B898B34
:1047900089899A890197F1F79A8B898B8B899C89F2
:1047A00001979C8B8B8B8B899C89009769F714C030
:1047B0006D897E898F89988D0E944100DC01CB0133
:1047C0009C8B8B8B8B899C89988B8F878F85988905
:1047D0000197F1F7988B8F8781E00E949B0580E01D
:1047E00063E00E940707CE0181539E4F0E94DB06C3
:1047F00080E090E0AAE7B3E48B879C87AD87BE8713
:104800006B857C858D859E8520E030E04AEF54E401
:104810000E941702DC01CB018F839887A987BA8792
:104820006F81788589859A8520E030E040E85FE3F4
:104830000E94710388232CF481E090E09E838D8395
:104840003FC06F81788589859A8520E03FEF4FE7EB
:1048500057E40E94110318164CF56B857C858D85F5
:104860009E8520E030E040E251E40E941702DC0126
:10487000CB01BC01CD010E944100DC01CB019E8334
:104880008D830FC088EC90E09C838B838B819C810F
:104890000197F1F79C838B838D819E8101979E8385
:1048A0008D838D819E81009769F714C06F81788513
:1048B00089859A850E944100DC01CB019E838D830E
:1048C0008D819E819A83898389819A810197F1F7ED
:1048D0009A83898381E00E949B050C947310A1E266
:1048E0001A2EAA1BBB1BFD010DC0AA1FBB1FEE1F6A
:1048F000FF1FA217B307E407F50720F0A21BB30BB5
:10490000E40BF50B661F771F881F991F1A9469F730
:1049100060957095809590959B01AC01BD01CF018C
:1049200008952F923F924F925F926F927F928F9253
:104930009F92AF92BF92CF92DF92EF92FF920F932E
:104940001F93CF93DF93CDB7DEB7CA1BDB0B0FB638
:10495000F894DEBF0FBECDBF09942A8839884888F5
:104960005F846E847D848C849B84AA84B984C8848B
:10497000DF80EE80FD800C811B81AA81B981CE0F82
:10498000D11D0FB6F894DEBF0FBECDBFED01089567
:04499000F894FFCFC9
:1049940048656C6C6F0049276D00526F6B62610053
:1049A400492063616E20706C61792000666F6F74BA
:1049B40062616C6C00492063616E2064616E6365A2
:1049C40020006A756D7020726F6164626C6F636B36
:1049D4007300446F6E2774204B696C6C206D650006
:1049E40052495020526F6B626100000000000000C9
:0249F4000000C1
:00000001FF
